:020000040800F2
:2000000000000020F50300088106000885060008890600088D060008910600081C000008A9
:200020002000000824000008280000089506000899060008340000089D0600087906000884
:200040004000000844000008480000084C0000085000000854000008580000085C000008F0
:200060006000000864000008680000086C0000087000000874000008780000087C000008D0
:200080008000000884000008880000088C0000089000000894000008980000089C000008B0
:2000A000A0000008A4000008A8000008AC000008B0000008B4000008B8000008BC00000890
:2000C000C0000008C4000008C8000008CC000008D0000008D4000008D8000008DC00000870
:2000E000E0000008E4000008E8000008EC000008F0000008F4000008F8000008FC00000850
:200100000001000804010008080100080C0100081001000814010008180100081C01000827
:200120002001000824010008280100082C0100083001000834010008380100083C01000807
:200140004001000844010008480100084C0100080048E801000C0240000C0240000C024048
:20016000000C024000000240001002400010024000100240001002400010024000440040D1
:2001800000480040000C024000080240000C02400008024082B000200090019043F60001FA
:2001A000C4F20201086850F480300860086810F4003001900098401C00900198002803D16C
:2001C0000098B0F5A06FF1D1086810F4003018BF01200190019801284DD143F60040C4F2D5
:2001E0000200026852F004020260026852F002020260026852F00102026043F62400C4F2B3
:200200000200026852F0805202605FF4006047F20002C4F20002106047F20400C4F20000F3
:20022000026812F01002FBD143F60802C4F20202106810601068106010681060106830F423
:200240007D001060106850F411001060086850F080700860086810F00070FBD0106830F029
:1A02600003001060106850F003001060106810F00C000C28FAD102B07047FA
:20027C0000B5002000F048F9012000F045F9022000F042F9032000F03FF900F0E9F9294832
:20029C0000685FF47A71B0FBF1F06FF07F41884201D9012021E030F07F40401E5FF0E0219E
:2002BC0048610F205FEA001010F0FF005FF0FF31002908DA11F00F01091F4EF61852CEF2C1
:2002DC000002505403E05FF0E02181F8FF0300205FF0E021886107220A61002800D0FEE7E4
:2002FC00002000F05BF9012000F058F9022000F055F9032000F052F95FF4FA7000F0A0F918
:20031C00002000F04BF9012000F048F9022000F045F9032000F042F95FF4967000F090F9AB
:20033C00DEE7C046000800202DE9F04306000A0000235FF0010E03240125032748E01EFA1D
:20035C0003F011680140814241D15FEA430114FA01F06FEA0008306810EA08003060306850
:20037C00D2F8049019FA01F950EA090030605068012801D002281BD1B06810EA0800B06031
:20039C00B068D2F8088018FA01F850EA0800B060B08815FA03F830EA0800B080B6F80480B4
:2003BC00D06880B210FA03F080B258EA0000B080F0685FEA430817FA08F830EA0800F060A7
:2003DC00F068D2F8108018FA01F10843F0605B1C102BB4D3BDE8F0831449084714498D4683
:2003FC0000F02EF8134B00201C685D689E68DF68012C02D0022C06D00AE07F1EF15DE955A1
:20041C00FBD11033F0E77F1EE855FCD11033EBE700F0B2F80848824600F005F80749FFF739
:20043C001FFF00F01DF900207047C046F903000800080020A00600080000002000000000A5
:20045C0000B543F60000C4F20200016851F48071016043F60801C4F202010A684CF20C0320
:20047C00C8F6FF031A400A60026832F0011232F088520260026832F480220260086830F4B7
:20049C007D000860002043F60C01C4F202010860FFF772FE5FF000605FF0E021C1F8080DA1
:0204BC0000BD81
:2004C0000100000800100002000400010100000010000000100000001000000010000000BB
:2004E0001000000001000008001000020004000100000400040004000400040000000B00AD
:200500000C0009000A00080006002800280017002800170030B585B004000F4911EB800115
:200520000868012100F05AF80C4810EB440005880095012001900020039004900320029084
:20054000074810EB840420686946FFF7FBFE2068058305B030BDC046380600083006000867
:2005600004080020000002000000040008000000040000000800000004000000200000040D
:200580004000000805000A0006000B00070007000700070005480649884206D0054A50F804
:2005A000043B41F8043B9142F9D17047000000080000000850010008064911EB800109688A
:2005C00031F8142F044B13EB4003188892EA000008807047040800203006000843F61C0203
:1A05E000C4F20202002903D0116851EA000002E0116831EA000010607047FA
:2005FC00030406080C10182030000000000000000000000001020304060708090448016869
:20061C00002908BF70470168491E01607047C0464408002001000200100020000800000082
:20063C0008000000080000000800000031F0604131F07F0108435FF0E021C1F8080D704703
:20065C000249086008680028FCD17047440800205FF000605FF44051FFF7E8BFFFF7CEBF90
:02067C00FEE797
:020680007047C1
:02068400FEE78F
:02068800FEE78B
:02068C00FEE787
:02069000FEE783
:020694007047AD
:020698007047A9
:02069C007047A5
:2006A000010000000008002050010008440000000200000044080020000000000400000002
:1006C000000000000000000000000000000000002A
:04000005080003F5F7
:00000001FF
